{
  "contractName": "GuessAndWin",
  "abi": [
    {
      "inputs": [
        {
          "internalType": "string",
          "name": "_hint",
          "type": "string"
        },
        {
          "internalType": "string",
          "name": "_word",
          "type": "string"
        }
      ],
      "stateMutability": "nonpayable",
      "type": "constructor"
    },
    {
      "anonymous": false,
      "inputs": [
        {
          "indexed": true,
          "internalType": "address",
          "name": "previousOwner",
          "type": "address"
        },
        {
          "indexed": true,
          "internalType": "address",
          "name": "newOwner",
          "type": "address"
        }
      ],
      "name": "OwnershipTransferred",
      "type": "event"
    },
    {
      "anonymous": false,
      "inputs": [
        {
          "indexed": true,
          "internalType": "address",
          "name": "_winner",
          "type": "address"
        }
      ],
      "name": "win",
      "type": "event"
    },
    {
      "inputs": [
        {
          "internalType": "address",
          "name": "",
          "type": "address"
        }
      ],
      "name": "HasTried",
      "outputs": [
        {
          "internalType": "uint256",
          "name": "",
          "type": "uint256"
        }
      ],
      "stateMutability": "view",
      "type": "function",
      "constant": true
    },
    {
      "inputs": [],
      "name": "hint",
      "outputs": [
        {
          "internalType": "string",
          "name": "",
          "type": "string"
        }
      ],
      "stateMutability": "view",
      "type": "function",
      "constant": true
    },
    {
      "inputs": [],
      "name": "owner",
      "outputs": [
        {
          "internalType": "address",
          "name": "",
          "type": "address"
        }
      ],
      "stateMutability": "view",
      "type": "function",
      "constant": true
    },
    {
      "inputs": [],
      "name": "renounceOwnership",
      "outputs": [],
      "stateMutability": "nonpayable",
      "type": "function"
    },
    {
      "inputs": [
        {
          "internalType": "address",
          "name": "newOwner",
          "type": "address"
        }
      ],
      "name": "transferOwnership",
      "outputs": [],
      "stateMutability": "nonpayable",
      "type": "function"
    },
    {
      "inputs": [],
      "name": "winner",
      "outputs": [
        {
          "internalType": "address",
          "name": "",
          "type": "address"
        }
      ],
      "stateMutability": "view",
      "type": "function",
      "constant": true
    },
    {
      "stateMutability": "payable",
      "type": "receive",
      "payable": true
    },
    {
      "inputs": [
        {
          "internalType": "string",
          "name": "tmpString",
          "type": "string"
        }
      ],
      "name": "proposeWord",
      "outputs": [
        {
          "internalType": "bool",
          "name": "",
          "type": "bool"
        }
      ],
      "stateMutability": "payable",
      "type": "function",
      "payable": true
    },
    {
      "inputs": [
        {
          "internalType": "string",
          "name": "str",
          "type": "string"
        },
        {
          "internalType": "string",
          "name": "hintStr",
          "type": "string"
        }
      ],
      "name": "changeWord",
      "outputs": [],
      "stateMutability": "nonpayable",
      "type": "function"
    },
    {
      "inputs": [],
      "name": "hasSomeoneWin",
      "outputs": [
        {
          "internalType": "bool",
          "name": "",
          "type": "bool"
        }
      ],
      "stateMutability": "view",
      "type": "function",
      "constant": true
    },
    {
      "inputs": [],
      "name": "seePrize",
      "outputs": [
        {
          "internalType": "uint256",
          "name": "",
          "type": "uint256"
        }
      ],
      "stateMutability": "view",
      "type": "function",
      "constant": true
    }
  ],
  "bytecode": "0x60806040523480156200001157600080fd5b5060405162001359380380620013598339810160408190526200003491620002f2565b6200003f3362000122565b806040516020016200005291906200035c565b60405160208183030381529060405280519060200120826040516020016200007b91906200035c565b6040516020818303038152906040528051906020012003620000ee5760405162461bcd60e51b815260206004820152602260248201527f776f726420616e642068696e74206861766520746f20626520646966666572656044820152611b9d60f21b606482015260840160405180910390fd5b81516200010390600190602085019062000172565b5080516200011990600290602084019062000172565b505050620003b6565b600080546001600160a01b038381166001600160a01b0319831681178455604051919092169283917f8be0079c531659141344cd1fd0a4f28419497f9722a3daafe3b4186f6b6457e09190a35050565b82805462000180906200037a565b90600052602060002090601f016020900481019282620001a45760008555620001ef565b82601f10620001bf57805160ff1916838001178555620001ef565b82800160010185558215620001ef579182015b82811115620001ef578251825591602001919060010190620001d2565b50620001fd92915062000201565b5090565b5b80821115620001fd576000815560010162000202565b634e487b7160e01b600052604160045260246000fd5b60005b838110156200024b57818101518382015260200162000231565b838111156200025b576000848401525b50505050565b600082601f8301126200027357600080fd5b81516001600160401b038082111562000290576200029062000218565b604051601f8301601f19908116603f01168101908282118183101715620002bb57620002bb62000218565b81604052838152866020858801011115620002d557600080fd5b620002e88460208301602089016200022e565b9695505050505050565b600080604083850312156200030657600080fd5b82516001600160401b03808211156200031e57600080fd5b6200032c8683870162000261565b935060208501519150808211156200034357600080fd5b50620003528582860162000261565b9150509250929050565b60008251620003708184602087016200022e565b9190910192915050565b600181811c908216806200038f57607f821691505b602082108103620003b057634e487b7160e01b600052602260045260246000fd5b50919050565b610f9380620003c66000396000f3fe6080604052600436106100b55760003560e01c8063c54ba37d11610069578063dfbf53ae1161004e578063dfbf53ae146101cf578063f2fde38b146101fc578063fbf552db1461021c57600080fd5b8063c54ba37d1461019a578063cafc4608146101af57600080fd5b8063715018a61161009a578063715018a6146101145780638da5cb5b1461012b578063bc3ba76c1461017757600080fd5b8063081d7389146100c1578063199500ec1461010157600080fd5b366100bc57005b600080fd5b3480156100cd57600080fd5b506100ee6100dc366004610b1e565b60036020526000908152604090205481565b6040519081526020015b60405180910390f35b34801561010d57600080fd5b50476100ee565b34801561012057600080fd5b5061012961023e565b005b34801561013757600080fd5b5060005473ffffffffffffffffffffffffffffffffffffffff165b60405173ffffffffffffffffffffffffffffffffffffffff90911681526020016100f8565b61018a610185366004610c35565b6102d0565b60405190151581526020016100f8565b3480156101a657600080fd5b5061018a6105db565b3480156101bb57600080fd5b506101296101ca366004610c72565b610609565b3480156101db57600080fd5b506005546101529073ffffffffffffffffffffffffffffffffffffffff1681565b34801561020857600080fd5b50610129610217366004610b1e565b6107c1565b34801561022857600080fd5b506102316108f1565b6040516100f89190610d06565b60005473ffffffffffffffffffffffffffffffffffffffff1633146102c4576040517f08c379a000000000000000000000000000000000000000000000000000000000815260206004820181905260248201527f4f776e61626c653a2063616c6c6572206973206e6f7420746865206f776e657260448201526064015b60405180910390fd5b6102ce600061097f565b565b3360009081526003602052604081205460011161036f576040517f08c379a000000000000000000000000000000000000000000000000000000000815260206004820152602260248201527f536f7272792c20796f7520616c726561647920676f7420796f7572206368616e60448201527f636500000000000000000000000000000000000000000000000000000000000060648201526084016102bb565b6103813a670de0b6b3a7640000610d86565b3410156103ea576040517f08c379a000000000000000000000000000000000000000000000000000000000815260206004820152601060248201527f50617920312065746820746f207472790000000000000000000000000000000060448201526064016102bb565b33600090815260036020526040812080546001929061040a908490610d9d565b9091555050600480546001810182556000919091527f8a35acfbc15ff81a39ae7d344fd709f28e8600b4aa8c65c6b64bfe7fe36bd19b0180547fffffffffffffffffffffffff0000000000000000000000000000000000000000163317905560405161047b90600290602001610e08565b60405160208183030381529060405280519060200120826040516020016104a29190610eda565b60405160208183030381529060405280519060200120036105d35760003347604051600081818185875af1925050503d80600081146104fd576040519150601f19603f3d011682016040523d82523d6000602084013e610502565b606091505b505090508061056d576040517f08c379a000000000000000000000000000000000000000000000000000000000815260206004820152601460248201527f4661696c656420746f2073656e6420457468657200000000000000000000000060448201526064016102bb565b600580547fffffffffffffffffffffffff0000000000000000000000000000000000000000163317905561059f6109f4565b60405133907fa34cc845dfe7e94da90b41e77f799f7c29c20a39271c97a2469ce08afed0830b90600090a250600192915050565b506000919050565b60055460009073ffffffffffffffffffffffffffffffffffffffff1681036106035750600090565b50600190565b60005473ffffffffffffffffffffffffffffffffffffffff16331461068a576040517f08c379a000000000000000000000000000000000000000000000000000000000815260206004820181905260248201527f4f776e61626c653a2063616c6c6572206973206e6f7420746865206f776e657260448201526064016102bb565b8060405160200161069b9190610eda565b60405160208183030381529060405280519060200120826040516020016106c29190610eda565b6040516020818303038152906040528051906020012003610765576040517f08c379a000000000000000000000000000000000000000000000000000000000815260206004820152602260248201527f776f726420616e642068696e74206861766520746f206265206469666665726560448201527f6e7400000000000000000000000000000000000000000000000000000000000060648201526084016102bb565b8051610778906001906020840190610a6b565b50815161078c906002906020850190610a6b565b50600580547fffffffffffffffffffffffff00000000000000000000000000000000000000001690556107bd6109f4565b5050565b60005473ffffffffffffffffffffffffffffffffffffffff163314610842576040517f08c379a000000000000000000000000000000000000000000000000000000000815260206004820181905260248201527f4f776e61626c653a2063616c6c6572206973206e6f7420746865206f776e657260448201526064016102bb565b73ffffffffffffffffffffffffffffffffffffffff81166108e5576040517f08c379a000000000000000000000000000000000000000000000000000000000815260206004820152602660248201527f4f776e61626c653a206e6577206f776e657220697320746865207a65726f206160448201527f646472657373000000000000000000000000000000000000000000000000000060648201526084016102bb565b6108ee8161097f565b50565b600180546108fe90610db5565b80601f016020809104026020016040519081016040528092919081815260200182805461092a90610db5565b80156109775780601f1061094c57610100808354040283529160200191610977565b820191906000526020600020905b81548152906001019060200180831161095a57829003601f168201915b505050505081565b6000805473ffffffffffffffffffffffffffffffffffffffff8381167fffffffffffffffffffffffff0000000000000000000000000000000000000000831681178455604051919092169283917f8be0079c531659141344cd1fd0a4f28419497f9722a3daafe3b4186f6b6457e09190a35050565b60005b600454811015610a5e5760006003600060048481548110610a1a57610a1a610ef6565b600091825260208083209091015473ffffffffffffffffffffffffffffffffffffffff16835282019290925260400190205580610a5681610f25565b9150506109f7565b506102ce60046000610aef565b828054610a7790610db5565b90600052602060002090601f016020900481019282610a995760008555610adf565b82601f10610ab257805160ff1916838001178555610adf565b82800160010185558215610adf579182015b82811115610adf578251825591602001919060010190610ac4565b50610aeb929150610b09565b5090565b50805460008255906000526020600020908101906108ee91905b5b80821115610aeb5760008155600101610b0a565b600060208284031215610b3057600080fd5b813573ffffffffffffffffffffffffffffffffffffffff81168114610b5457600080fd5b9392505050565b7f4e487b7100000000000000000000000000000000000000000000000000000000600052604160045260246000fd5b600082601f830112610b9b57600080fd5b813567ffffffffffffffff80821115610bb657610bb6610b5b565b604051601f83017fffffffffffffffffffffffffffffffffffffffffffffffffffffffffffffffe0908116603f01168101908282118183101715610bfc57610bfc610b5b565b81604052838152866020858801011115610c1557600080fd5b836020870160208301376000602085830101528094505050505092915050565b600060208284031215610c4757600080fd5b813567ffffffffffffffff811115610c5e57600080fd5b610c6a84828501610b8a565b949350505050565b60008060408385031215610c8557600080fd5b823567ffffffffffffffff80821115610c9d57600080fd5b610ca986838701610b8a565b93506020850135915080821115610cbf57600080fd5b50610ccc85828601610b8a565b9150509250929050565b60005b83811015610cf1578181015183820152602001610cd9565b83811115610d00576000848401525b50505050565b6020815260008251806020840152610d25816040850160208701610cd6565b601f017fffffffffffffffffffffffffffffffffffffffffffffffffffffffffffffffe0169190910160400192915050565b7f4e487b7100000000000000000000000000000000000000000000000000000000600052601160045260246000fd5b600082821015610d9857610d98610d57565b500390565b60008219821115610db057610db0610d57565b500190565b600181811c90821680610dc957607f821691505b602082108103610e02577f4e487b7100000000000000000000000000000000000000000000000000000000600052602260045260246000fd5b50919050565b600080835481600182811c915080831680610e2457607f831692505b60208084108203610e5c577f4e487b710000000000000000000000000000000000000000000000000000000086526022600452602486fd5b818015610e705760018114610e9f57610ecc565b7fffffffffffffffffffffffffffffffffffffffffffffffffffffffffffffff00861689528489019650610ecc565b60008a81526020902060005b86811015610ec45781548b820152908501908301610eab565b505084890196505b509498975050505050505050565b60008251610eec818460208701610cd6565b9190910192915050565b7f4e487b7100000000000000000000000000000000000000000000000000000000600052603260045260246000fd5b60007fffffffffffffffffffffffffffffffffffffffffffffffffffffffffffffffff8203610f5657610f56610d57565b506001019056fea264697066735822122017731565deeae3fe28a88b101e596c36af1a4e78aabbb055df37e4fc15d416d564736f6c634300080d0033",
  "immutableReferences": {},
  "source": "// SPDX-License-Identifier: GPL-3.0\npragma solidity 0.8.13;\n\nimport '@openzeppelin/contracts/access/Ownable.sol';\n\ncontract GuessAndWin is Ownable{\n    string public hint; \n    string private word; //word to find\n    mapping(address => uint) public HasTried; // HasTried[0] => never play, HasTried[1] tried once\n    address[] private log;\n    address public winner;\n    event win(\n        address indexed _winner\n    );\n    constructor(string memory _hint, string memory _word) {\n        require(keccak256(abi.encodePacked(_hint)) != keccak256(abi.encodePacked(_word)), \"word and hint have to be different\");\n        hint = _hint;\n        word = _word;\n    }\n    /*\n        verify if the player has already tried once\n        write in the mapping that this address tried\n        then compare the try and the word\n        if it match, send all contract's eth to msg.sender\n        return true\n        else return false\n    */\n    function proposeWord(string memory tmpString)external payable returns(bool){\n        require(HasTried[msg.sender] < 1, \"Sorry, you already got your chance\");\n        require(msg.value >= (1 ether - tx.gasprice), \"Pay 1 eth to try\");\n        HasTried[msg.sender] += 1;\n        log.push(msg.sender);\n        if(keccak256(abi.encodePacked(tmpString)) == keccak256(abi.encodePacked(word))){\n            (bool sent, ) = msg.sender.call{value: seePrize()}(\"\");\n            require(sent, \"Failed to send Ether\");\n            winner = msg.sender;\n            restart();\n            emit win(msg.sender);\n            return true;\n        }\n            return false;\n    }\n\n    /*\n        Owner can change the word, but restart the mapping to be fair\n    */\n    function changeWord(string memory str, string memory hintStr)external onlyOwner{\n        require(keccak256(abi.encodePacked(str)) != keccak256(abi.encodePacked(hintStr)), \"word and hint have to be different\");\n        hint = hintStr;\n        word = str;\n        winner = address(0);\n        restart();\n    }\n    /*\n        restart the mapping;\n    */\n    function restart() private {\n        for(uint i; i < log.length; i++){\n            HasTried[log[i]] = 0;\n        }\n        delete log;\n    }\n\n    /*\n        winner = 0x00... means nobody find the word\n    */\n    function hasSomeoneWin()external view returns(bool){\n        if(winner == 0x0000000000000000000000000000000000000000){\n            return false;\n        }\n            return true;\n    }\n\n    \n    function seePrize()public view returns(uint){\n        return address(this).balance;\n    }\n\n    receive()external payable{\n\n    }\n\n}",
  "sourcePath": "/home/amsteradams/developpement/Solidity/GuessAndWinDapp/contracts/GuessAndWin.sol",
  "compiler": {
    "name": "solc",
    "version": "0.8.13+commit.abaa5c0e.Emscripten.clang"
  },
  "schemaVersion": "3.4.6",
  "updatedAt": "2022-04-24T11:17:28.464Z",
  "networkType": "ethereum",
  "devdoc": {
    "kind": "dev",
    "methods": {
      "owner()": {
        "details": "Returns the address of the current owner."
      },
      "renounceOwnership()": {
        "details": "Leaves the contract without owner. It will not be possible to call `onlyOwner` functions anymore. Can only be called by the current owner. NOTE: Renouncing ownership will leave the contract without an owner, thereby removing any functionality that is only available to the owner."
      },
      "transferOwnership(address)": {
        "details": "Transfers ownership of the contract to a new account (`newOwner`). Can only be called by the current owner."
      }
    },
    "version": 1
  },
  "userdoc": {
    "kind": "user",
    "methods": {},
    "version": 1
  }
}